:100000000C9485000C94AD000C94AD000C94AD00E4
:100010000C94AD000C94AD000C94AD000C94AD00AC
:100020000C94AD000C94AD000C94AD000C94AD009C
:100030000C94AD000C94AD000C94AD000C94AD008C
:100040000C945C040C94AD000C94CC040C94A604A9
:100050000C94AD000C94AD000C94AD000C94AD006C
:100060000C94AD000C94AD00D101D701DD01E3018A
:10007000E901EF01F50126032D0334033B0342039D
:1000800059034903590350035C09D1099B098309AA
:100090009908990856099908560999085609560960
:1000A0005609990856095609CB05B905BC05BB0583
:1000B000BE05C305C505CA05000000080002010011
:1000C0000003040700000000000000000000000022
:1000D000250028002B0000000000240027002A0033
:1000E00004040404040404040202020202020303DE
:1000F00003030303010204081020408001020408E6
:100100001020010204081020EE0A11241FBECFEFB8
:10011000D8E0DEBFCDBF11E0A0E0B1E0EEEEF1E24D
:1001200002C005900D92AC32B107D9F722E0ACE2E3
:10013000B1E001C01D92AF3DB207E1F710E0C5E8A4
:10014000D0E004C02197FE010E94C810C438D10736
:10015000C9F70E943A060C94F5100C940000CF9257
:10016000DF92EF92FF920F931F93CF93DF936C0177
:100170007A018B01C0E0D0E0CE15DF0589F0D8010F
:100180006D918D01D601ED91FC910190F081E02DF2
:10019000C6010995892B11F47E0102C02196ECCF8E
:1001A000C701DF91CF911F910F91FF90EF90DF90EA
:1001B000CF900895089580E090E00895FC01538D5C
:1001C000448D252F30E0842F90E0821B930B541731
:1001D00010F0CF96089501970895FC01918D828DBE
:1001E000981761F0828DDF01A80FB11D5D968C918B
:1001F000928D9F5F9F73928F90E008958FEF9FEF96
:100200000895FC01918D828D981731F0828DE80F51
:10021000F11D858D90E008958FEF9FEF0895FC010B
:10022000918D228D892F90E0805C9F4F821B9109D8
:100230008F739927089585E391E00E940F0121E0D3
:10024000892B09F420E0822F0895FC01848DDF01C1
:10025000A80FB11DA35ABF4F2C91848D90E0019639
:100260008F739927848FA689B7892C93A089B18928
:100270008C9180648C93938D848D981306C0028832
:10028000F389E02D80818F7D80830895EF92FF9226
:100290000F931F93CF93DF93EC0181E0888F9B8DA9
:1002A0008C8D981305C0E889F989808185FD24C06B
:1002B000F62E0B8D10E00F5F1F4F0F731127E02EEE
:1002C0008C8DE8120CC00FB607FCFACFE889F989CB
:1002D000808185FFF5CFCE010E942501F1CF8B8D66
:1002E000FE01E80FF11DE35AFF4FF0820B8FEA8900
:1002F000FB898081806207C0EE89FF896083E8897D
:10030000F98980818064808381E090E0DF91CF91E2
:100310001F910F91FF90EF900895CF93DF93EC0121
:10032000888D8823C9F0EA89FB89808185FD05C015
:10033000A889B9898C9186FD0FC00FB607FCF5CF4F
:10034000808185FFF2CFA889B9898C9185FFEDCF97
:10035000CE010E942501E7CFDF91CF91089580E083
:1003600090E0892B29F00E941B0181110C94000060
:100370000895CF93DF934770552766277727FA01B3
:100380003197EC01A881B981E730F10520F4EC5CEC
:10039000FF4F0C94C8101496ED91FC91159761E0F5
:1003A00029C01496ED91FC91159765E023C0149631
:1003B000ED91FC91159764E01DC01496ED91FC91B0
:1003C000159766E017C01496ED91FC91159762E0C1
:1003D00011C01496ED91FC9115976AE00BC014962C
:1003E000ED91FC91159768E005C01496ED91FC9194
:1003F000159769E0DF91CF910994CF93DF93EC01DA
:10040000CB01BA0126E030E040E050E00E94A910A4
:10041000623071058105910559F18CF46115710502
:1004200081059105F1F06130710581059105C1F5F6
:10043000E881F9810480F581E02D65E02DC064300C
:1004400071058105910511F1D4F0653071058105C3
:10045000910531F5E881F9810480F581E02D66E0B0
:100460001BC0E881F9810480F581E02D64E014C0AF
:10047000E881F9810480F581E02D61E00DC0E8811B
:10048000F9810480F581E02D63E006C0E881F981FF
:100490000480F581E02D62E0CE01DF91CF910994D7
:1004A000DF91CF9108954370552766277727DC01A8
:1004B000ED91FC910480F581E02D423051056105FC
:1004C000710571F0433051056105710559F04130F6
:1004D00051056105710511F065E005C066E003C0D6
:1004E0006AE001C069E00994CF93DF93EC01CB018E
:1004F000BA0123E030E040E050E00E94A9106130F2
:1005000071058105910581F06230710581059105C4
:1005100091F0672B682B692BC1F4E881F981048085
:10052000F581E02D64E00DC0E881F9810480F5815A
:10053000E02D61E006C0E881F9810480F581E02DBD
:1005400062E0CE01DF91CF910994DF91CF910895C0
:100550004370552766277727DC01ED91FC910480D5
:10056000F581E02D423051056105710571F0433090
:1005700051056105710559F041305105610571055D
:1005800011F062E005C063E003C061E001C060E01B
:100590000994CF93DF93EC01E881F9810480F58120
:1005A000E02D8A81811102C060E001C062E0CE01CD
:1005B0000995E881F9810480F581E02D8A81811116
:1005C00002C061E001C063E0CE0109958CA59DA544
:1005D0008230910538F0880F991F880F991F059771
:1005E0000197F1F7E881F9810480F581E02D8A8196
:1005F000811102C060E001C062E0CE01DF91CF91C5
:100600000994CF93DF93EC0120E030E0A9016C89DD
:100610007D898E899F890E94371018161CF4E8A9DD
:10062000F9A902C0EAA9FBA9DF91CF9109940F9320
:100630001F93DC011396EC910E2F10E00930110589
:10064000C0F5F801E55CFF4F0C94C810DC01ED919A
:10065000FC910084F185E02D29C0DC01ED91FC9135
:100660000284F385E02D22C0DC01ED91FC9104842D
:10067000F585E02D1BC0DC01ED91FC910684F7852A
:10068000E02D14C0DC01ED91FC910088F189E02D92
:100690000DC0DC01ED91FC910288F389E02D06C0CC
:1006A000DC01ED91FC910488F589E02D1F910F91FB
:1006B00009941F910F91089587FF0DC09CE0980F3A
:1006C000923048F0982F9B7F993F29F0803F08F4A3
:1006D000807F90E0089580E090E008959C018F7CF9
:1006E0008038910561F0203D310549F081E0203EE0
:1006F000310539F0203C310521F080E0089581E09A
:1007000008950895DC01ED91FC910190F081E02DB8
:10071000099490E0FC01E854FF4F3491FC01EC5047
:10072000FF4F2491FC01E052FF4FE491EE2309F4C6
:100730003BC0332339F1333091F038F43130A9F034
:10074000323001F584B58F7D12C0373091F03830EA
:10075000A1F03430B9F4809180008F7D03C0809186
:1007600080008F77809380000DC084B58F7784BD23
:1007700009C08091B0008F7703C08091B0008F7D59
:100780008093B000F0E0EE0FFF1FE453FF4FA59100
:10079000B4918FB7F894EC91611103C020952E238A
:1007A00001C02E2B2C938FBF0895CF93DF93FC01B4
:1007B0002381222329F1EC0184810E9448058D8147
:1007C0000E9448058B81843011F0883029F48E8195
:1007D0000E9448058F8105C0833011F0863019F4DE
:1007E0008E810E9448058FA58F3F51F00E944805D9
:1007F0006EA581E068278FA5DF91CF910C948903C6
:10080000DF91CF910895CF93DF93FC0123812223C1
:10081000A1F0EC010190F081E02D0480F581E02D44
:1008200060E009958FA58F3F41F00E9448056EA5B5
:100830008FA5DF91CF910C948903DF91CF9108951B
:10084000CF92DF92EF92FF920F931F93CF93DF939C
:10085000FC012381243041F0283031F0233031F085
:10086000263021F012E003C014E001C013E0EC01D7
:100870002896E12CF12CC62ED12C01E0C6010E2CBD
:1008800002C0959587950A94E2F7688180FD6027FC
:10089000FE01349780810E948903FFEFEF1AFF0A5F
:1008A0002196E11658F3DF91CF911F910F91FF90A0
:1008B000EF90DF90CF9008951F920F920FB60F9296
:1008C00011242F933F938F939F93AF93BF93809166
:1008D000310190913201A0913301B09134013091F6
:1008E000300123E0230F2D3720F40196A11DB11D07
:1008F00005C026E8230F0296A11DB11D20933001EB
:100900008093310190933201A0933301B09334016D
:1009100080912C0190912D01A0912E01B0912F0179
:100920000196A11DB11D80932C0190932D01A093E0
:100930002E01B0932F01BF91AF919F918F913F9165
:100940002F910F900FBE0F901F9018951F920F922E
:100950000FB60F9211242F933F934F935F936F9392
:100960007F938F939F93AF93BF93EF93FF9385E311
:1009700091E00E942501FF91EF91BF91AF919F916E
:100980008F917F916F915F914F913F912F910F9038
:100990000FBE0F901F9018951F920F920FB60F92D7
:1009A00011242F938F939F93EF93FF93E091450131
:1009B000F09146018081E0914B01F0914C0182FD64
:1009C00012C0908180914E018F5F8F7320914F01F3
:1009D000821751F0E0914E01F0E0EB5CFE4F958FF5
:1009E00080934E0101C08081FF91EF919F918F9183
:1009F0002F910F900FBE0F901F9018956D3F7105AE
:100A00003CF46A3F710554F4683F710589F406C0EF
:100A10009B012E5F31092230310550F4DC018D91AC
:100A20009C91DC01ED91FC910190F081E02D099405
:100A30000895CF93DF9360E08CE00E94890360E02B
:100A400088E00E948903C7E0D0E060E084E00E9473
:100A500089038091DD0290E00C2E02C09595879568
:100A60000A94E2F780FF02C061E001C060E088E024
:100A70000E94890361E084E00E948903219728F79E
:100A800061E08CE0DF91CF910C9489030E94F0101B
:100A900090E0FC01EC50FF4F2491FC01E052FF4F2D
:100AA0008491882399F090E0880F991FFC01EA5205
:100AB000FF4FA591B491FC01E453FF4F85919491B0
:100AC0008FB7F894EC91E22BEC938FBF0895CF93FE
:100AD000DF934091D302413041F0423009F063C0CE
:100AE000A0E4B0E831E020E204C0A0E1B8E032E0E8
:100AF00024E09091DC0293FF06C0813011F4985FEE
:100B000007C0985005C0813011F4905F01C090512A
:100B10009093DC028091DC028F738093DC02413081
:100B200031F48FEF8093B3008093B40005C042305E
:100B300019F48FEF87BD88BDC32FC22BDA2FDB2BB3
:100B40004D2F4C2B40959091DD02842F892380936B
:100B5000DD024091DC02E42FE695E695E6954E2F06
:100B600050E048305105D0F4FA01EC5AFF4F0C9494
:100B7000C8108C2B11C03B2B832B0EC0382F3B2B66
:100B80003093DD020BC08D2B07C0282F2A2B20931A
:100B9000DD0204C02A2B822B8093DD020E941905FE
:100BA0008091DC0201C080E0DF91CF910895EF9247
:100BB000FF921F93CF93DF931F92CDB7DEB77C01D7
:100BC000162F2150203108F04EC080E8E816F104BD
:100BD0000CF449C0A1EEEA16F104ACF58091F601DF
:100BE0009091F701DC01ED91FC916E2D622B01904B
:100BF000F081E02D498309958091F6019091F701EC
:100C0000DC01ED91FC91612F6F770190F081E02D77
:100C10000995E894E4F84981B0ECEB16F10419F178
:100C20008091F6019091F701DC01ED91FC91642F28
:100C30006F770190F081E02D0F90DF91CF911F91A0
:100C4000FF90EF900994C701885F9109089758F4C5
:100C5000B70186EF91E00F90DF91CF911F91FF9048
:100C6000EF900C94FE040F90DF91CF911F91FF90B5
:100C7000EF900895789484B5826084BD84B58160D6
:100C800084BD85B5826085BD85B5816085BD809157
:100C90006E00816080936E001092810080918100CF
:100CA00082608093810080918100816080938100C7
:100CB000809180008160809380008091B100846089
:100CC0008093B1008091B00081608093B0008091EA
:100CD0007A00846080937A0080917A0082608093A9
:100CE0007A0080917A00816080937A0080917A0006
:100CF000806880937A001092C100E091F601F09133
:100D0000F701A089B18982E08C93A485B5851C92F6
:100D1000A685B7858FE38C93108EA489B58986E06C
:100D20008C93A289B3898C9180618C93A289B389B9
:100D30008C9188608C93A289B3898C9180688C9304
:100D40000288F389E02D80818F7D80831092F801E5
:100D50001092FA011092F901109201021092000211
:100D60001092FF011092FE018FEF9FEF909303020C
:100D700080930202909305028093040210928C02E9
:100D800010920902109208021092070210920A02B1
:100D900010920B02809106028170826081608093C4
:100DA0000602D1E0B0E8EB2EF12CC2E0CC2ED12C23
:100DB00013E0A12EB12C88248394912C1091F8017A
:100DC000113108F0BBC18091F6019091F701DC016F
:100DD000ED91FC910084F185E02D0995892B09F4B2
:100DE000ADC18091F6019091F701DC01ED91FC918C
:100DF0000284F385E02D09953C018B7F893F09F43E
:100E00009DC120910002309101022115310509F0A8
:100E1000AAC06092FB01C091F9018C2F0E945C0373
:100E20000E946E03882351F067FC08C0C093FB0149
:100E30006092FC019092010280920002C091FB013D
:100E40008C2F0E945C03813F910509F45EC074F50C
:100E5000803B910509F45EC06CF48039910509F47A
:100E600059C0803A910509F455C08038910509F0C0
:100E7000D6C050C0803D910509F447C02CF4803C99
:100E8000910509F442C0CBC0803E910509F442C0EF
:100E9000803F910509F0C3C0F092FF01E092FE018E
:100EA0001092F901B0EFB0930C0238C0883F910561
:100EB000B9F044F4833F910541F164F1863F910517
:100EC00079F0ADC08A3F91050CF4A9C08D3F910522
:100ED0003CF09C012E5F31092230310508F09FC0A3
:100EE00090930902809308021092070210920A025E
:100EF00010920B02D0938C02109201021092000209
:100F00001092FF011092FE01EEC0D092FF01C0923C
:100F1000FE0104C0B092FF01A092FE0120910002E8
:100F2000309101024091FE015091FF014150510961
:100F30002417350708F4D0C0909309028093080263
:100F4000CF70CF5FC09307028091FC0180930A02AB
:100F500010920B0210920102109200021092FF01F7
:100F60001092FE0121C067FE44C0C30199278D3F46
:100F7000910554F48A3F91056CF4873F9105B9F0CF
:100F8000883F9105B1F506C0AC014E5F5109423072
:100F9000510578F5909309028093080210920A0295
:100FA00010920B0210920702D0938C029CC0809189
:100FB0000C02803FA1F5C9010196F901EE52FE4FE6
:100FC00027EF22AFA0EFB0E0B0930902A093080290
:100FD00080930A0290930B0210920702D0938C0226
:100FE00010920102109200021092FF011092FE0175
:100FF00070C08091FB01F901EE52FE4F803FD1F4A9
:1010000062AE6090FE017090FF01C3010197281746
:10101000390708F461C0C091FB01C03F69F4109228
:101020000102109200021092FF011092FE01109234
:10103000F90184C061A6E5CF8C2F0E945C031C01DE
:1010400090930902809308020E946E03882331F076
:101050008C2F8F708F5F8093070202C0109207025F
:101060008091FC0180930A02B3E06B16710419F4BD
:101070008091FD0101C080E080930B02109201027B
:10108000109200021092FF011092FE01D0938C0288
:1010900020EB22163104D1F06CF480E928163104DB
:1010A000A9F0A0EA2A16310489F0B0E82B16310421
:1010B00081F40CC020ED2216310441F030EE2316ED
:1010C000310421F080EC2816310419F4C093F901A1
:1010D0000AC01092F90107C02F5F3F4F3093010201
:1010E000209300022BC08091080290910902803960
:1010F000910529F480910B02882309F476C180912F
:101100000802909109029C012058310921363105CD
:1011100008F070C120910702211709F46BC1112357
:1011200009F468C1C0E040910602642F617040FD7F
:1011300083C0CC2319F081E00E9467058091B10241
:101140009091B202A091B302B091B402892B8A2B84
:101150008B2B09F46EC03FB7F89480912C019091CD
:101160002D01A0912E01B0912F0126B5A89B05C09D
:101170002F3F19F00196A11DB11D3FBFBA2FA92F16
:10118000982F8827820F911DA11DB11D2C013D01B3
:1011900042E0440C551C661C771C4A95D1F780919F
:1011A000B5029091B602A091B702B091B802B30116
:1011B000A201481B590B6A0B7B0B8091B1029091E5
:1011C000B202A091B302B091B402481759076A075E
:1011D0007B0778F120918F028091990290919A0279
:1011E000A0919B02B0919C02222321F00196A11DA7
:1011F000B11D03C00197A109B10980939902909391
:101200009A02A0939B02B0939C0240919902509144
:101210009A0260919B0270919C028DE892E00E947C
:1012200017034092B5025092B6026092B7027092D4
:10123000B8020E94AF01C2CD842F8E7F09F479CF0E
:1012400080910802909109029C01205831092136B1
:10125000310508F520910702211719F061E01111FD
:1012600060E0469550E04230510541F04330510571
:1012700049F04130510509F05CCF06C0662309F4FE
:1012800058CF02C0611155CF40910B0260910A0204
:101290000E94D7054ECFFC01E05FF109E031F10576
:1012A00008F047CFEC5BFF4F0C94C810BC0186EFF1
:1012B00091E00E94FE043DCF00910B0210E0102F40
:1012C000002780910A02082B0138110510F000E870
:1012D00010E0612C712C6016710609F42ACF809100
:1012E000F6019091F701DC01ED91FC91D301AE5232
:1012F000BE4F0190F081E02DDA966C910995BFEF19
:101300006B1A7B0AE8CF10910A028091F601909146
:10131000F701DC01ED91FC910190F081E02D63EF8C
:1013200009951F77612F70E08091F6019091F70188
:101330000E948203FECE00910B02B0E80B9F800159
:10134000112480910A02082B8091F6019091F701F7
:10135000DC01ED91FC910190F081E02D62EF0995A7
:101360008091F6019091F701DC01ED91FC91B801BB
:101370006F7777270190F081E02D09958091F60134
:101380009091F701DC01ED91FC91B801660F672F98
:10139000661F770B71956F7777270190F081E02DAD
:1013A00022C080910A028770B0E18B9FC001112496
:1013B00010910B021F70182B8091F6019091F7018C
:1013C000DC01ED91FC910190F081E02D61EF099538
:1013D0008091F6019091F701DC01ED91FC91019073
:1013E000F081E02D612F0995A4CEF0920902E092E0
:1013F000080285CE813F9105B1F5E091E201F091BF
:10140000E3010CC08B3F91050CF0C7C0833F9105F1
:1014100009F0A4C0E091E601F091E701309709F1ED
:1014200080910A0209951DC0813D91050CF454C0BC
:10143000803E910509F060C0E091DE01F091DF018E
:10144000309779F060910B026F77A0E86A9FB00146
:10145000112480910A028F77682B705280910702C5
:101460000995C1E060CE823F91050CF061C0803BE0
:101470009105B1F4E091D801F091D90107C080380D
:10148000910579F7E091D201F091D301309749F3BA
:1014900040910B0260910A02809107020995E1CF09
:1014A000813B910584F48039910529F4E091D401C0
:1014B000F091D501EBCF803A910509F7E091D60183
:1014C000F091D701E3CF803D910509F0ADCFE091D8
:1014D000DC01F091DD0107C0803C910511F6E0913F
:1014E000DA01F091DB01309709F4BBCF60910A0279
:1014F000809107020995B5CF803F910509F0B1CFE2
:10150000E091E001F091E101309709F4AACF6091F8
:101510000B0270E0762F662780910A02682B6138F3
:10152000710510F060E870E08CE092E0099599CFC9
:101530008A3F910509F066CFE091EC01F091ED0151
:1015400008C0883F910509F08CCFE091EA01F09145
:10155000EB01309709F485CF099583CF833F91053F
:10156000A4F4E091E401F091E501309709F479CF1A
:1015700080910B028F77B0E88B9FC00111242091DE
:101580000A022F77822B09956CCF863F9105C9F609
:10159000E091E801F091E901DCCF8C3F910529F45D
:1015A000E091F001F091F101D4CF8C3F91052CF442
:1015B000E091EE01F091EF01CCCF8E3F910529F43F
:1015C000E091F201F091F301C4CF8F3F910509F052
:1015D00048CFE091F401F091F501BBCF4F925F92BB
:1015E0006F927F928F929F92AF92BF92CF92DF9233
:1015F000EF92FF920F931F93CF93DF9300D000D011
:10160000CDB7DEB7109238011092370188EE93E023
:10161000A0E0B0E08093390190933A01A0933B01A0
:10162000B0933C0184E091E09093360180933501C2
:1016300085EC90E0909342018093410184EC90E02E
:10164000909344018093430180EC90E09093460195
:101650008093450181EC90E090934801809347018D
:1016600082EC90E090934A018093490186EC90E0EF
:1016700090934C0180934B0110924E0110924F01B8
:1016800010925001109251011092DE028CE00E94E3
:10169000480587E00E94480588E00E94480584E0EC
:1016A0000E9448051092DD020E94190560E087E063
:1016B0000E94890388EC90E09093D2028093D1023B
:1016C00011E01093D3021092DC020E9419058BE006
:1016D0000E94480583E00E94480561E08BE00E947B
:1016E000890361E083E00E9489038091B0008368F0
:1016F0008093B0001093B1001092B3008BE00E9471
:1017000048058091B00083628093B0001093B100CF
:101710001092B40083E00E9448050FEF0093B300DD
:101720000093B40082E00E946705182F81E00E94B8
:10173000670526E131E030938E0220938D0280937D
:1017400090021092990210929A0210929B021092AB
:101750009C0210929D0210929E0210929F02109283
:10176000A0021092A1021092A2021092A302109263
:10177000A402812C912C80E8A82E8FE3B82E8092B1
:10178000A5029092A602A092A702B092A80210927F
:10179000A9021092AA021092AB021092AC0280929F
:1017A000AD029092AE02A092AF02B092B00210923F
:1017B000B1021092B2021092B3021092B40281E010
:1017C00090E09093BA028093B9020093BC02109209
:1017D000B5021092B6021092B7021092B80210939E
:1017E000910283E08093920284E08093930285E0EB
:1017F000809394021092BB021092C1021092C20216
:101800001092C3021092C4021092C5021092C60236
:101810001092C7021092C8021092C9021092CA0216
:101820001092CB021092CC028092CD029092CE0206
:10183000A092CF02B092D00210928F021092950225
:101840001092960210929702109298028DE892E000
:101850000E94D503C090A902D090AA02E090AB02EA
:10186000F090AC02A5019401C701B6010E94D80E08
:10187000882309F49FC16091C1027091C2028091D6
:10188000C3029091C4020E94870FA70196010E9493
:101890003C100E944F0F6B017C016093C10270935A
:1018A000C2028093C3029093C40286E896E6A9E63A
:1018B000B9E48093C5029093C602A093C702B09387
:1018C000C8028092A9029092AA02A092AB02B092A2
:1018D000AC0280909D0290909E02A0909F02B090DA
:1018E000A0028091990290919A02A0919B02B091DE
:1018F0009C02881A990AAA0ABB0A6091A1027091F7
:10190000A2028091A3029091A4029B01AC010E94CB
:101910003C1020E030E040E05FE30E943C100E9479
:101920004F0F81149104A104B104F9F462307105E0
:10193000810591050CF08BC01092B1021092B20299
:101940001092B3021092B4021092A1021092A2025D
:101950001092A3021092A4021092C1021092C2022D
:101960001092C3021092C40225C1181419041A045B
:101970001B040CF51C141D041E041F0454F46815EC
:1019800079058A059B0564F520918F0221115FC0BE
:1019900027C0C114D104E104F10409F458C068154A
:1019A00079058A059B050CF052C080918F0288232F
:1019B00009F44DC03CC01C141D041E041F0414F582
:1019C000002711279801081919092A093B096017EE
:1019D00071078207930724F420918F022223B9F123
:1019E0009B01AC0188279927DC01821B930BA40B78
:1019F000B50B8093C1029093C202A093C302B0932F
:101A0000C40225C0C114D104E104F10401F100278E
:101A100011279801081919092A093B09601771074C
:101A200082079307A4F480918F02811110C0F09473
:101A3000E094D094C094C11CD11CE11CF11CC09254
:101A4000C102D092C202E092C302F092C402C090DE
:101A5000C102D090C202E090C302F090C402C1144F
:101A6000D104E104F104B1F486E896E6A9E6B9E40C
:101A70008093C9029093CA02A093CB02B093CC0288
:101A800081E0181419041A041B040CF080E0809300
:101A90008F024AC08090C9029090CA02A090CB02E7
:101AA000B090CC02A5019401C501B4010E946C0E56
:101AB0002B013C01C701B6010E94870F20E030E0F6
:101AC00040E850E40E943C1020E030E040E85FE352
:101AD0000E946C0E9B01AC01C301B2010E94DD0E9D
:101AE0009B01AC01C501B4010E946B0E4B015C016E
:101AF0000091CD021091CE027090CF026090D00282
:101B00009801472D562D0E94371018161CF04801D9
:101B1000A72CB62CA401B5014093C9025093CA0268
:101B20006093CB027093CC023FEFC31AD30AE30A4F
:101B3000F30AC092C102D092C202E092C302F092B4
:101B4000C4022091C9023091CA024091CB02509147
:101B5000CC02CA01B90129833A834B835C830E947A
:101B6000560F6093B1027093B2028093B3029093C8
:101B7000B40229813A814B815C8160E074E284E7A0
:101B800099E40E94DD0E6093A1027093A2028093FB
:101B9000A3029093A40220918F0221110BC0DC01BB
:101BA000CB01B0588093A1029093A202A093A3020C
:101BB000B093A40285E391E09093F7018093F6013E
:101BC0001092F8011092F9011092FA011092FF019F
:101BD0001092FE0110920102109200028FEF9FEF0F
:101BE0009093030280930202909305028093040273
:101BF00083E080930602109207021092090210926D
:101C0000080210920A0210920B0210928C0280E8D5
:101C1000ECE0F2E0DF011D928A95E9F71092D30122
:101C20001092D2011092D5011092D4011092D701D6
:101C30001092D6011092D9011092D8011092DB01B6
:101C40001092DA011092DD011092DC011092DF0196
:101C50001092DE011092E1011092E0011092E30176
:101C60001092E2011092E5011092E4011092E70156
:101C70001092E6011092E9011092E8011092EB0136
:101C80001092EA011092ED011092EC011092EF0116
:101C90001092EE011092F1011092F0011092F301F6
:101CA0001092F2011092F5011092F4010F900F9032
:101CB0000F900F90DF91CF911F910F91FF90EF90B8
:101CC000DF90CF90BF90AF909F908F907F906F905C
:101CD0005F904F9008955058BB27AA270E94830E0B
:101CE0000C94FD0F0E94EF0F38F00E94F60F20F0C9
:101CF00039F49F3F19F426F40C94EC0F0EF4E095A0
:101D0000E7FB0C94E60FE92F0E940E1058F3BA1768
:101D1000620773078407950720F079F4A6F50C9401
:101D200030100EF4E0950B2EBA2FA02D0B01B90147
:101D300090010C01CA01A0011124FF27591B99F041
:101D4000593F50F4503E68F11A16F040A22F232F4D
:101D5000342F4427585FF3CF469537952795A7959D
:101D6000F0405395C9F77EF41F16BA0B620B730B44
:101D7000840BBAF09150A1F0FF0FBB1F661F771FB5
:101D8000881FC2F70EC0BA0F621F731F841F48F46A
:101D9000879577956795B795F7959E3F08F0B0CFF3
:101DA0009395880F08F09927EE0F979587950895DA
:101DB0000E94C20F08F481E008950E94F10E0C9475
:101DC000FD0F0E94F60F58F00E94EF0F40F029F42B
:101DD0005F3F29F00C94E60F51110C9431100C94D4
:101DE000EC0F0E940E1068F39923B1F3552391F381
:101DF000951B550BBB27AA2762177307840738F07A
:101E00009F5F5F4F220F331F441FAA1FA9F335D0D6
:101E10000E2E3AF0E0E832D091505040E695001C8A
:101E2000CAF72BD0FE2F29D0660F771F881FBB1F44
:101E3000261737074807AB07B0E809F0BB0B802D22
:101E4000BF01FF2793585F4F3AF09E3F510578F04E
:101E50000C94E60F0C9431105F3FE4F3983ED4F3FA
:101E6000869577956795B795F7959F5FC9F7880F22
:101E7000911D9695879597F90895E1E0660F771F74
:101E8000881FBB1F621773078407BA0720F0621B05
:101E9000730B840BBA0BEE1F88F7E09508950E9430
:101EA000560F6894B1110C94311008950E941610C9
:101EB00088F09F5798F0B92F9927B751B0F0E1F00B
:101EC000660F771F881F991F1AF0BA95C9F714C0BB
:101ED000B13091F00E943010B1E008950C943010B0
:101EE000672F782F8827B85F39F0B93FCCF38695F4
:101EF00077956795B395D9F73EF490958095709551
:101F000061957F4F8F4F9F4F0895E89409C097FBCD
:101F10003EF490958095709561957F4F8F4F9F4FC0
:101F20009923A9F0F92F96E9BB279395F695879504
:101F300077956795B795F111F8CFFAF4BB0F11F4C7
:101F400060FF1BC06F5F7F4F8F4F9F4F16C088236E
:101F500011F096E911C0772321F09EE8872F762FA4
:101F600005C0662371F096E8862F70E060E02AF0E5
:101F70009A95660F771F881FDAF7880F96958795D1
:101F800097F90895990F0008550FAA0BE0E8FEEFA6
:101F900016161706E807F907C0F012161306E4072D
:101FA000F50798F0621B730B840B950B39F40A2626
:101FB00061F0232B242B252B21F408950A2609F404
:101FC000A140A6958FEF811D811D089597F99F6708
:101FD00080E870E060E008959FEF80EC08950024B1
:101FE0000A941616170618060906089500240A947E
:101FF00012161306140605060895092E0394000C04
:1020000011F4882352F0BB0F40F4BF2B11F460FF92
:1020100004C06F5F7F4F8F4F9F4F089557FD9058BB
:10202000440F551F59F05F3F71F04795880F97FB9C
:10203000991F61F09F3F79F0879508951216130656
:102040001406551FF2CF4695F1DF08C01616170685
:102050001806991FF1CF86957105610508940895BA
:10206000E894BB2766277727CB0197F908950E944C
:10207000C20F08F48FEF08950E944F100C94FD0FCB
:102080000E94EF0F38F00E94F60F20F0952311F018
:102090000C94E60F0C94EC0F11240C9431100E9458
:1020A0000E1070F3959FC1F3950F50E0551F629F7E
:1020B000F001729FBB27F00DB11D639FAA27F00DA1
:1020C000B11DAA1F649F6627B00DA11D661F829FC8
:1020D0002227B00DA11D621F739FB00DA11D621FAD
:1020E000839FA00D611D221F749F3327A00D611DCA
:1020F000231F849F600D211D822F762F6A2F1124AC
:102100009F5750409AF0F1F088234AF0EE0FFF1FDE
:10211000BB1F661F771F881F91505040A9F79E3F35
:10212000510580F00C94E60F0C9431105F3FE4F3FE
:10213000983ED4F3869577956795B795F795E7958B
:102140009F5FC1F7FE2B880F911D9695879597F994
:102150000895052E97FB1EF400940E94C01057FDB1
:1021600007D00E94CE1007FC03D04EF40C94C01090
:1021700050954095309521953F4F4F4F5F4F0895B3
:1021800090958095709561957F4F8F4F9F4F0895E3
:10219000EE0FFF1F0590F491E02D0994A1E21A2E95
:1021A000AA1BBB1BFD010DC0AA1FBB1FEE1FFF1FFB
:1021B000A217B307E407F50720F0A21BB30BE40B4B
:1021C000F50B661F771F881F991F1A9469F7609592
:1021D0007095809590959B01AC01BD01CF0108954C
:0E21E00081E090E0F8940C94F510F894FFCF95
:1021EE00000000004601AF00DE008D010F01ED0082
:1021FE000101000000000304D503200417030103AE
:0C220E00C902A80274025302FD01B901CC
:00000001FF
